:020000040800F2
:1000000000040020490100083D030008D502000853
:1000100039030008910100083905000800000000BC
:100020000000000000000000000000006103000864
:1000300095010008000000003F030008D5040008F7
:100040006301000863010008630100086301000800
:1000500063010008630100086301000863010008F0
:1000600063010008630100086301000863010008E0
:1000700063010008630100086301000863010008D0
:1000800063010008630100086301000863010008C0
:1000900063010008630100086301000863010008B0
:1000A00063010008630100086301000863010008A0
:1000B0006301000863010008630100086301000890
:1000C0006301000863010008630100086301000880
:1000D0006301000863010008630100086301000870
:1000E0006301000863010008630100086301000860
:1000F0006301000863010008630100086301000850
:10010000630100086301000863010008630100083F
:10011000630100086301000863010008630100082F
:10012000630100086301000863010008630100081F
:10013000DFF810D000F01AF8004800475D0500080D
:10014000AFF30080000400200648804706480047BF
:10015000FEE7FEE7FEE7FEE7FEE7FEE7FEE7FEE777
:10016000FEE7FEE7D904000831010008064C074D00
:1001700006E0E06840F0010394E807009847103477
:10018000AC42F6D3FFF7D8FFA8050008B805000871
:1001900000BFFEE7704701B502E00098401E0090E6
:1001A00000980028F9D108BD2DE9F041024600254C
:1001B0000026002000230024002791F803C00CF043
:1001C0000F0591F803C00CF0100CBCF1000F03D028
:1001D00091F802C04CEA050591F800C0BCF1000F8F
:1001E00031D0146800202BE04FF0010C0CFA00F322
:1001F000B1F800C00CEA03069E4220D183004FF004
:100200000F0C0CFA03F7BC4305FA03FC4CEA040498
:1002100091F803C0BCF1280F06D14FF0010C0CFA85
:1002200000FCC2F814C00AE091F803C0BCF1480F0A
:1002300005D14FF0010C0CFA00FCC2F810C0401CB4
:100240000828D1D31460B1F800C0BCF1FF0F34DD31
:10025000546800202EE000F1080C4FF0010808FA65
:100260000CF3B1F800C00CEA03069E4221D18300D2
:100270004FF00F0C0CFA03F7BC4305FA03FC4CEAF1
:10028000040491F803C0BCF1280F05D100F1080C5B
:1002900008FA0CF8C2F8148091F803C0BCF1480FBA
:1002A00007D100F1080C4FF0010808FA0CF8C2F869
:1002B0001080401C0828CED35460BDE8F08102466F
:1002C000002093680B400BB1012000E00020704734
:1002D0004161704700BFFEE708B50121142000F01E
:1002E0002FF80120ADF8000004208DF803006946C6
:1002F0000548FFF759FF4FF40050ADF8000069467C
:100300000248FFF751FF08BD0008014000100140FE
:1003100070B504460D4629462046FFF7D0FF012858
:1003200008D100BF29462046FFF7C9FF0128F9D0B0
:10033000012070BD0020FCE700BFFEE7704770475A
:1003400029B1064A92690243044B9A6104E0034AC8
:1003500092698243014B9A6170470000001002408D
:10036000704710B500F002F810BD00000CB5002079
:10037000019000903348006840F4803031490860B3
:1003800000BF3048006800F4003000900198401C25
:100390000190009818B90198B0F5A06FF1D12948E3
:1003A000006800F4003010B10120009001E000204E
:1003B00000900098012843D12348006840F01000C5
:1003C000214908600846006820F0030008600846DC
:1003D000006840F0020008601A4840681949486007
:1003E0000846406848600846406840F480604860BD
:1003F0000846406820F47C1048600846406840F495
:10040000E81048600846006840F08070086000BF4F
:100410000C48006800F000700028F9D009484068D6
:1004200020F00300074948600846406840F0020099
:10043000486000BF0348406800F00C000828F9D16C
:100440000CBD0000001002400020024000B5002159
:100450000AE00748C06880F08000054AD06040F696
:10046000FF70FFF798FE491CB1F5487FF1DB00BD36
:100470000010014008B501211020FFF761FF102096
:100480008DF8030003208DF802004020ADF8000035
:1004900069460F48FFF788FE8020ADF800006946E6
:1004A0000B48FFF781FE1020ADF8000069460848B0
:1004B000FFF77AFE40210648FFF70AFF8021044833
:1004C000FFF706FF10210248FFF702FF08BD0000FA
:1004D000001001407047000010B51348006840F05C
:1004E00001001149086008464068104908400E495B
:1004F0004860084600680E4908400B4908600846F5
:10050000006820F4802008600846406820F4FE005F
:1005100048604FF41F008860FFF723FF4FF0006032
:100520000449086010BD0000001002400000FFF800
:10053000FFFFF6FE08ED00E000BFFEE702E008C89E
:10054000121F08C1002AFAD170477047002001E04D
:1005500001C1121F002AFBD170470000FFF7BCFE4B
:10056000FFF788FF0D48FFF716FE16E001210C4843
:10057000FFF7CEFE012804D140200A490861FFF7A9
:1005800065FF4FF400510748FFF7C2FE012804D170
:10059000402004494861FFF759FFE7E7FFFF0F00DC
:1005A0000008014000100140B805000800000020CC
:0805B000000400004C050008E6
:0400000508000131BD
:00000001FF
